{
  "contractName": "Lottery",
  "abi": [
    {
      "inputs": [],
      "stateMutability": "nonpayable",
      "type": "constructor"
    },
    {
      "inputs": [],
      "name": "manager",
      "outputs": [
        {
          "internalType": "address",
          "name": "",
          "type": "address"
        }
      ],
      "stateMutability": "view",
      "type": "function"
    },
    {
      "inputs": [
        {
          "internalType": "uint256",
          "name": "",
          "type": "uint256"
        }
      ],
      "name": "players",
      "outputs": [
        {
          "internalType": "address",
          "name": "",
          "type": "address"
        }
      ],
      "stateMutability": "view",
      "type": "function"
    }
  ],
  "bytecode": "0x608060405234801561001057600080fd5b50336000806101000a81548173ffffffffffffffffffffffffffffffffffffffff021916908373ffffffffffffffffffffffffffffffffffffffff1602179055506101dd806100606000396000f3fe608060405234801561001057600080fd5b50600436106100365760003560e01c8063481c6a751461003b578063f71d96cb14610059575b600080fd5b610043610089565b6040516100509190610139565b60405180910390f35b610073600480360381019061006e9190610101565b6100ad565b6040516100809190610139565b60405180910390f35b60008054906101000a900473ffffffffffffffffffffffffffffffffffffffff1681565b600181815481106100bd57600080fd5b906000526020600020016000915054906101000a900473ffffffffffffffffffffffffffffffffffffffff1681565b6000813590506100fb81610190565b92915050565b60006020828403121561011357600080fd5b6000610121848285016100ec565b91505092915050565b61013381610154565b82525050565b600060208201905061014e600083018461012a565b92915050565b600061015f82610166565b9050919050565b600073ffffffffffffffffffffffffffffffffffffffff82169050919050565b6000819050919050565b61019981610186565b81146101a457600080fd5b5056fea2646970667358221220d9c51e0b640f842382e98252190404beb301afe71ad77342a4c66f2dd34ca23f64736f6c63430008040033",
  "immutableReferences": {},
  "source": "//SPDX-License-Identifier: MIT\r\npragma solidity ^0.8.4;\r\n\r\ncontract Lottery {\r\n    address public manager;\r\n    address[] public players;\r\n\r\n    modifier onlyManager {\r\n        require(msg.sender == manager, \"Not A Manager\");\r\n        _;\r\n    }\r\n\r\n    constructor() {\r\n        manager = msg.sender;\r\n    }\r\n\r\n}",
  "sourcePath": "C:\\Users\\Sk_Ch\\Desktop\\Blockchain\\lottery\\contracts\\Lottery.sol",
  "compiler": {
    "name": "solc",
    "version": "0.8.4+commit.c7e474f2.Emscripten.clang"
  },
  "schemaVersion": "3.4.2",
  "updatedAt": "2021-08-11T09:00:24.211Z",
  "devdoc": {
    "kind": "dev",
    "methods": {},
    "version": 1
  },
  "userdoc": {
    "kind": "user",
    "methods": {},
    "version": 1
  }
}